:100000000C9472000C9493000C9493000C94930045
:100010000C9493000C9493000C9493000C94930014
:100020000C9493000C9493000C9493000C94930004
:100030000C9493000C9493000C9493000C949300F4
:100040000C9493000C9493000C9493000C949300E4
:100050000C9493000C9493000C9493000C949300D4
:100060000C9493000C946F030C9493000C949300E5
:100070000C9493000C9493000C9493000C949300B4
:100080000C9493000C9493000C9493000C949300A4
:100090000C9493000C9493000C9493000C94930094
:1000A0000C9493000C9493000C9493000C94930084
:1000B0000C9493000C9493000C9493000C94930074
:1000C0000C9493000C9493000C9493000C94930064
:1000D0000C9493000C9493000C9493000C94930054
:1000E0000C94930011241FBECFEFD1E2DEBFCDBF31
:1000F00000E00CBF12E0A0E0B2E0E4E8F1E100E0D3
:100100000BBF02C007900D92AA34B107D9F722E0C5
:10011000AAE4B2E001C01D92AC35B207E1F70E943B
:100120000D060C94C0080C940000CF93DF9300D010
:100130001F92CDB7DEB71A82198222C01C821B82A1
:1001400016C089819A819C01220F331F220F331F11
:10015000220F331F8B819C81820F931F8E5F9D4FD7
:10016000FC0110828B819C8101969C838B838B8107
:100170009C81089734F389819A8101969A838983B7
:1001800089819A810897D4F200000F900F900F9008
:100190000F90DF91CF910895CF93DF93CDB7DEB766
:1001A0002E970FB6F894DEBF0FBECDBF9A87898712
:1001B0007C876B875E874D8789859A85880F991F15
:1001C0009E838D838B859C85880F991F98878F834D
:1001D0008D819E819A83898391C08F8198859C832C
:1001E0008B837CC08D859E858130910559F182304D
:1001F0009105A9F0892B09F06CC089819A819C0135
:10020000220F331F220F331F220F331F8B819C813C
:10021000820F931F8E5F9D4FFC0110825AC04D8547
:1002200089819A819C01220F331F220F331F220FD5
:10023000331F8B819C81820F931F8E5F9D4FFC012A
:10024000408347C029813A818D819E8128173907D3
:1002500039F42B813C818F81988528173907A1F0CB
:100260008D819E819C012F5F3F4F89819A81281744
:100270003907E9F48F8198859C012F5F3F4F8B816F
:100280009C812817390799F44D8589819A819C01B1
:10029000220F331F220F331F220F331F8B819C81AC
:1002A000820F931F8E5F9D4FFC01408311C0898197
:1002B0009A819C01220F331F220F331F220F331FFD
:1002C0008B819C81820F931F8E5F9D4FFC0110825A
:1002D00000008B819C8101969C838B838F81988504
:1002E0009C012E5F3F4F8B819C81821793070CF4FA
:1002F00079CF89819A8101969A8389838D819E81A4
:100300009C012E5F3F4F89819A81821793070CF4DD
:1003100064CF00002E960FB6F894DEBF0FBECDBF9F
:10032000DF91CF910895CF93DF931F921F92CDB7A6
:10033000DEB781E091E02FEFFC01208381E290E0C5
:100340002FEFFC01208387E290E02FEFFC01208358
:100350008AE091E020EFFC0120838BE091E02FE028
:10036000FC01208382E091E028E0FC0120831092D0
:1003700051021A8219822AC082E290E022E230E021
:10038000F9012081422F21E030E0098002C0220FD4
:10039000331F0A94E2F720952423FC01208388E28E
:1003A00090E028E230E0F9012081422F21E030E0A6
:1003B000098002C0220F331F0A94E2F7242BFC01AC
:1003C000208389819A8101969A83898389819A8180
:1003D000089794F20E94950080EC90E022E0FC01E6
:1003E000208381EC90E028E9FC01208382EC90E0FE
:1003F00027E0FC01208385EC90E0FC01108284EC76
:1004000090E02CE0FC012083789400000F900F9086
:10041000DF91CF910895CF93DF93CDB7DEB70E94E0
:10042000950010924E0280915102882341F481E0A0
:100430008093510282E492E00E94D30302C01092A2
:1004400051020000DF91CF910895CF93DF93CDB794
:10045000DEB780915102813031F482E091E028E1F1
:10046000FC01208305C082E091E028E0FC012083AC
:100470000000DF91CF910895CF93DF9300D01F92BA
:10048000CDB7DEB71A82198212C01C821B8205C04A
:100490008B819C8101969C838B838B819C818F3F78
:1004A0009105B4F389819A8101969A838983898120
:1004B0009A81C29754F300000F900F900F900F9005
:1004C000DF91CF910895CF93DF931F921F92CDB705
:1004D000DEB78A8389E091E0FC018081806F8983A7
:1004E0008981809589838981882F90E088709927F8
:1004F000892B19F08A818F5F1FC08981882F90E036
:1005000084709927892B19F08A818E5F15C08981A3
:10051000882F90E082709927892B19F08A818D5F4E
:100520000BC08981882F90E081709927892B19F061
:100530008A818C5F01C08FEF0F900F90DF91CF9178
:100540000895CF93DF93CDB7DEB729970FB6F89410
:10055000DEBF0FBECDBF898780915102882309F08D
:100560004DC08985882F90E00197837090789923FA
:1005700024F401978C6F9F6F01969A8389838985F4
:10058000282F30E089819A81A901481B590BCA01A3
:1005900099230CF4039695958795959587959C835B
:1005A0008B838B819C819C01220F331F89819A81CF
:1005B000880F991F220F331F220F331F220F331F63
:1005C000820F931F8E5F9D4FFC018081882F90E0EA
:1005D00001969E838D838D819E8123E030E0B90159
:1005E0000E943E089E838D834D815E8129813A81E0
:1005F0008B819C81B9010E94CC0021C099858DEC32
:10060000989F812D1124869586958695805D8F8390
:1006100099858DEC989F812D1124869586958695D8
:10062000880F282F220F220F820FF92FF81B8F2FF0
:10063000805D88871986CE0107960E94D30300004B
:1006400029960FB6F894DEBF0FBECDBFDF91CF91D4
:100650000895CF93DF931F921F92CDB7DEB7198213
:100660008BE091E02FE7FC01208389810E946302E7
:100670008A838A818F3F11F08A812CC084E089832C
:100680008BE091E02FEBFC01208389810E946302C3
:100690008A838A818F3F11F08A811CC088E0898318
:1006A0008BE091E02FEDFC01208389810E946302A1
:1006B0008A838A818F3F11F08A810CC08CE0898304
:1006C0008BE091E02FEEFC01208389810E94630280
:1006D0008A838A810F900F90DF91CF9108951F92A6
:1006E0000F9200905F000F92112400905B000F9218
:1006F0002F938F939F93EF93FF93CF93DF931F924B
:10070000CDB7DEB786EC90E0FC01808189838981DA
:10071000882F90E08432910519F0CB9721F007C023
:1007200010924F0213C081E080934E020FC080915F
:100730004F02882F90E08E5A9D4F2981FC01208323
:1007400080914F028F5F80934F02000000000F9056
:10075000DF91CF91FF91EF919F918F912F910F900A
:1007600000925B000F9000925F000F901F90189511
:10077000CF93DF931F92CDB7DEB78983000080EC63
:1007800090E0FC018081882F90E080729927892B6E
:10079000B1F386EC90E02981FC01208300000F90EA
:1007A000DF91CF910895CF93DF9300D000D0CDB7E4
:1007B000DEB79E838D838D819E810E9488089C83F5
:1007C0008B838B819C81892BF9F01A8219820FC04F
:1007D00089819A812D813E81820F931FFC01808146
:1007E0000E94B80389819A8101969A83898329811D
:1007F0003A818B819C812817390754F38DE00E9440
:10080000B8038AE00E94B803000026960FB6F89459
:10081000DEBF0FBECDBFDF91CF910895CF93DF93A1
:10082000CDB7DEB7A4970FB6F894DEBF0FBECDBF2D
:1008300080914C0290914D02209100023091010272
:10084000B9010E943E08892B21F481E08093500277
:1008500002C0109250021A821982A7C189819A811E
:10086000892B51F482E290E022E230E0F90120810C
:100870002F77FC01208317C082E290E022E230E073
:10088000F9012081622F29813A81A9014150510942
:1008900021E030E002C0220F331F4A95E2F7209595
:1008A0002623FC0120831C821B8274C089819A81CB
:1008B0009C01220F331F220F331F220F331F8B8106
:1008C0009C81820F931F8E5F9D4FFC018081882F3A
:1008D00090E081309105D1F08230910509F441C05A
:1008E000892B09F052C088E290E028E230E0F9015B
:1008F0002081422F21E030E00B8002C0220F331F05
:100900000A94E2F7242BFC0120833FC0809150021F
:100910008130A1F488E290E028E230E0F901208102
:10092000422F21E030E00B8002C0220F331F0A94D7
:10093000E2F720952423FC01208327C088E290E081
:1009400028E230E0F9012081422F21E030E00B80E5
:1009500002C0220F331F0A94E2F7242BFC012083EC
:1009600014C088E290E028E230E0F9012081422FB3
:1009700021E030E00B8002C0220F331F0A94E2F71F
:1009800020952423FC01208300008B819C8101960B
:100990009C838B838B819C8108970CF487CF82E2A8
:1009A00090E022E230E0F9012081422F21E030E0A6
:1009B000098002C0220F331F0A94E2F7242BFC01A6
:1009C000208380E090E0AAE7B3E48D839E83AF8329
:1009D000B8872BEA3AEA4AEA5EE36D817E818F812D
:1009E00098850E94D107DC01CB0189879A87AB8764
:1009F000BC8720E030E040E85EE36D817E818F813E
:100A000098850E94D107DC01CB018D879E87AF8737
:100A1000B88B20E030E040E85FE369857A858B851C
:100A20009C850E94B10688231CF481E0898BB2C0AA
:100A300020E03FEF4FE757E46D857E858F859889ED
:100A40000E94CC0718160CF07BC020E030E04AE78B
:100A500054E46D817E818F8198850E94B606DC0109
:100A6000CB018A8B9B8BAC8BBD8B20E030E04AE7BF
:100A700053E46A897B898C899D890E94D107DC01B6
:100A8000CB018E8B9F8BA88FB98F20E030E040E8A0
:100A90005FE36E897F89888D998D0E94B1068823D6
:100AA0002CF481E090E09B8F8A8F3FC020E03FEFE5
:100AB0004FE757E46E897F89888D998D0E94CC0716
:100AC00018164CF520E030E040E251E46A897B8959
:100AD0008C899D890E94D107DC01CB01BC01CD012D
:100AE0000E942807DC01CB019B8F8A8F0FC089E110
:100AF00090E09D8F8C8F8C8D9D8D0197F1F79D8F50
:100B00008C8F8A8D9B8D01979B8F8A8F8A8D9B8D71
:100B1000892B69F73FC06E897F89888D998D0E94E6
:100B20002807DC01CB019B8F8A8F8A8D9B8D9F8F3D
:100B30008E8F8E8D9F8D0197F1F79F8F8E8F2AC09C
:100B400020E030E04FE753E469857A858B859C850A
:100B50000E94CC071816ACF46D857E858F85988928
:100B60000E942807DC01CB0199A388A388A199A141
:100B70009BA38AA38AA19BA10197F1F79BA38AA3B8
:100B80000FC069857A858B859C850E942807DC01CA
:100B9000CB01898B89898CA38CA18A95F1F78CA3D1
:100BA00089819A8101969A83898389819A8108979C
:100BB0000CF454CE80914C0290914D02019690938A
:100BC0004D0280934C020000A4960FB6F894DEBF4D
:100BD0000FBECDBFDF91CF910895CF93DF931F92CA
:100BE0001F92CDB7DEB710924E021A8219820BC047
:100BF00089819A818E5A9D4FFC01108289819A8148
:100C000001969A83898389819A810A9788F30000E3
:100C10000F900F90DF91CF910895CF93DF93CDB7D1
:100C2000DEB72D970FB6F894DEBF0FBECDBF0E9482
:100C3000930180914E02813009F075C0809151027C
:100C4000813009F070C08FEF9FEF9A8389838FEF17
:100C50009FEF9C838B838FEF9FEF9E838D8368E450
:100C600072E082E592E00E94840898878F832EC00C
:100C700089819A81019679F48F8198850E9466080E
:100C80009A83898368E472E080E090E00E9484089F
:100C900098878F831BC08B819C81019679F48F810B
:100CA00098850E9466089C838B8368E472E080E0EC
:100CB00090E00E94840898878F8308C08F81988570
:100CC0000E9466089E838D8318861F828F81988577
:100CD000892B71F68B819C81019783709078992381
:100CE00024F401978C6F9F6F01969B878A872B81D5
:100CF0003C818A859B85F901E81BF90BCF0199237B
:100D00000CF4039695958795959587959D878C8787
:100D10004D815E812A853B858C859D85B9010E9428
:100D2000CC000E94ED058CE290E0FC018081882FD0
:100D300090E080719927892B31F00E940B020E946C
:100D400025020E943C020E942903898789858F3FE2
:100D500029F089850E94A1020E943C020E940E0493
:100D600068CF0E94570708F481E008950E94CA06E0
:100D70000C9492070E948B0758F00E94840740F061
:100D800029F45F3F29F00C947B0751110C94C6079E
:100D90000C9481070E94A30768F39923B1F35523AC
:100DA00091F3951B550BBB27AA276217730784077E
:100DB00038F09F5F5F4F220F331F441FAA1FA9F314
:100DC00035D00E2E3AF0E0E832D091505040E69502
:100DD000001CCAF72BD0FE2F29D0660F771F881F63
:100DE000BB1F261737074807AB07B0E809F0BB0B56
:100DF000802DBF01FF2793585F4F3AF09E3F51056A
:100E000078F00C947B070C94C6075F3FE4F3983EA0
:100E1000D4F3869577956795B795F7959F5FC9F752
:100E2000880F911D9695879597F90895E1E0660FD3
:100E3000771F881FBB1F621773078407BA0720F04C
:100E4000621B730B840BBA0BEE1F88F7E0950895B5
:100E50000E94AB0788F09F5798F0B92F9927B75198
:100E6000B0F0E1F0660F771F881F991F1AF0BA954E
:100E7000C9F714C0B13091F00E94C507B1E00895E0
:100E80000C94C507672F782F8827B85F39F0B93FD2
:100E9000CCF3869577956795B395D9F73EF4909501
:100EA0008095709561957F4F8F4F9F4F0895990F53
:100EB0000008550FAA0BE0E8FEEF16161706E80724
:100EC000F907C0F012161306E407F50798F0621B45
:100ED000730B840B950B39F40A2661F0232B242B1A
:100EE000252B21F408950A2609F4A140A6958FEF39
:100EF000811D811D089597F99F6780E870E060E08B
:100F000008959FEF80EC089500240A9416161706A2
:100F100018060906089500240A94121613061406EA
:100F200005060895092E0394000C11F4882352F04D
:100F3000BB0F40F4BF2B11F460FF04C06F5F7F4F05
:100F40008F4F9F4F089557FD9058440F551F59F0EC
:100F50005F3F71F04795880F97FB991F61F09F3FA6
:100F600079F087950895121613061406551FF2CFCF
:100F70004695F1DF08C0161617061806991FF1CF1F
:100F800086957105610508940895E894BB27662746
:100F90007727CB0197F908950E94570708F48FEF40
:100FA00008950E94E4070C9492070E94840738F089
:100FB0000E948B0720F0952311F00C947B070C9472
:100FC000810711240C94C6070E94A30770F3959F14
:100FD000C1F3950F50E0551F629FF001729FBB2730
:100FE000F00DB11D639FAA27F00DB11DAA1F649FCC
:100FF0006627B00DA11D661F829F2227B00DA11D7F
:10100000621F739FB00DA11D621F839FA00D611D04
:10101000221F749F3327A00D611D231F849F600D25
:10102000211D822F762F6A2F11249F5750409AF04E
:10103000F1F088234AF0EE0FFF1FBB1F661F771FDA
:10104000881F91505040A9F79E3F510580F00C94A5
:101050007B070C94C6075F3FE4F3983ED4F3869574
:1010600077956795B795F795E7959F5FC1F7FE2B45
:10107000880F911D9695879597F9089597FB072EF0
:1010800016F4009407D077FD09D00E94520807FC9F
:1010900005D03EF4909581959F4F08957095619588
:1010A0007F4F0895AA1BBB1B51E107C0AA1FBB1F9E
:1010B000A617B70710F0A61BB70B881F991F5A95E4
:1010C000A9F780959095BC01CD010895FC01882772
:1010D0009927E89421912032E9F3293010F02E303D
:1010E000C8F32B3241F02D3239F4689404C00E94C9
:1010F000B808820F911D219120532A30C0F31EF4AD
:10110000909581959F4F08954AE452E00C94910880
:10111000FC0101900020E9F7809590958E0F9F1FAC
:101120000895FA01A191B081009719F41097E1F0A8
:10113000CD01DC01CD010D90002011F4C00113C0E0
:10114000FB012191222319F02015D9F7F3CFFB01E0
:101150002191201519F41E92119606C02223C1F781
:101160000D900020A1F7D001FA01A193B08308955A
:101170007AE0979F902D879F802D910D11240895DF
:04118000F894FFCF11
:101184000300000000000000000000000100000156
:101194000000000002000002000000000100000145
:1011A4000000000000000000000000020000000039
:1011B4000200000002020202000000000000000021
:0A11C40000007265736574002C00D2
:00000001FF
