S02000006669726D776172653136626974496E7075744F75747075742E7372656360
S113000071C000008EC000008CC000008AC00000D7
S113001088C0000086C0000084C0000082C00000C8
S113002080C000007EC000007CC000007AC00000D8
S113003078C0000076C0000074C0000072C00000E8
S113004070C000006EC000006CC000006AC00000F8
S113005068C0000066C0000064C0000062C0000008
S113006060C000005EC000005CC000005AC0000018
S113007058C0000056C0000054C0000052C0000028
S113008050C000004EC000004CC000004AC0000038
S113009048C0000046C0000044C0000042C0000048
S11300A040C000003EC000003CC000003AC0000058
S11300B038C0000036C0000034C0000032C0000068
S11300C030C000002EC000002CC000002AC0000078
S11300D028C0000026C0000024C0000022C0000088
S11300E020C0000011241FBECFEFD1E2DEBFCDBF80
S11300F000E00CBF12E0A0E0B2E0E0E5FDE000E0CB
S11301000BBF02C007900D92A234B107D9F722E0C9
S1130110A2E4B2E001C01D92A634B207E1F75ED4B6
S113012015C66ECFCF93DF9300D01F92CDB7DEB745
S11301301A82198222C01C821B8216C089819A816C
S11301409C01220F331F220F331F220F331F8B8179
S11301509C81820F931F8E5F9D4FFC0110828B81C7
S11301609C8101969C838B838B819C81089734F3BB
S113017089819A8101969A83898389819A810897D2
S1130180D4F200000F900F900F900F90DF91CF9159
S11301900895CF93DF93CDB7DEB72E970FB6F894BB
S11301A0DEBF0FBECDBF9A8789877C876B875E874A
S11301B04D8789859A85880F991F9E838D838B85AA
S11301C09C85880F991F98878F838D819E819A8340
S11301D0898391C08F8198859C838B837CC08D8516
S11301E09E858130910559F182309105A9F0892BC2
S11301F009F06CC089819A819C01220F331F220F60
S1130200331F220F331F8B819C81820F931F8E5FBC
S11302109D4FFC0110825AC04D8589819A819C01B1
S1130220220F331F220F331F220F331F8B819C8118
S1130230820F931F8E5F9D4FFC01408347C029812D
S11302403A818D819E812817390739F42B813C81AD
S11302508F81988528173907A1F08D819E819C0193
S11302602F5F3F4F89819A8128173907E9F48F81DD
S113027098859C012F5F3F4F8B819C8128173907FC
S113028099F44D8589819A819C01220F331F220F95
S1130290331F220F331F8B819C81820F931F8E5F2C
S11302A09D4FFC01408311C089819A819C01220FDA
S11302B0331F220F331F220F331F8B819C81820F28
S11302C0931F8E5F9D4FFC01108200008B819C81E7
S11302D001969C838B838F8198859C012E5F3F4F71
S11302E08B819C81821793070CF479CF89819A8141
S11302F001969A8389838D819E819C012E5F3F4F55
S113030089819A81821793070CF464CF00002E969A
S11303100FB6F894DEBF0FBECDBFDF91CF91089525
S1130320CF93DF931F921F92CDB7DEB781E091E0A8
S11303302FEFFC01208381E290E02FEFFC0120836A
S113034087E290E02FEFFC0120838AE091E020EF28
S1130350FC0120838BE091E02FE0FC01208382E00C
S113036091E028E0FC012083109245021A82198250
S11303702AC082E290E022E230E0F9012081422F9B
S113038021E030E0098002C0220F331F0A94E2F713
S113039020952423FC01208388E290E028E230E0C9
S11303A0F9012081422F21E030E0098002C0220FB0
S11303B0331F0A94E2F7242BFC01208389819A815C
S11303C001969A83898389819A81089794F2AADE97
S11303D0789400000F900F90DF91CF910895CF9300
S11303E0DF93CDB7DEB780914502882321F481E005
S11303F08093450202C0109245020000DF91CF9124
S11304000895CF93DF93CDB7DEB780914502813055
S113041031F482E091E028E1FC01208305C082E010
S113042091E028E0FC0120830000DF91CF91089542
S1130430CF93DF9300D01F92CDB7DEB71A82198213
S113044012C01C821B8205C08B819C8101969C83F7
S11304508B838B819C818F3F9105B4F389819A8131
S113046001969A83898389819A81C29754F3000003
S11304700F900F900F900F90DF91CF910895CF932D
S1130480DF931F921F92CDB7DEB78A8389E091E094
S1130490FC018081806F898389818095898389812A
S11304A0882F90E088709927892B19F08A818F5FB3
S11304B01FC08981882F90E084709927892B19F0B7
S11304C08A818E5F15C08981882F90E08270992778
S11304D0892B19F08A818D5F0BC08981882F90E068
S11304E081709927892B19F08A818C5F01C08FEF65
S11304F00F900F90DF91CF910895CF93DF93CDB7F5
S1130500DEB727970FB6F894DEBF0FBECDBF8F833B
S11305108F81882F90E0019783709078992324F439
S113052001978C6F9F6F01969A8389838F81282FFF
S113053030E089819A81A901481B590BCA0199238A
S11305400CF4039695958795959587959C838B8355
S11305508B819C819C01220F331F89819A81880F92
S1130560991F220F331F220F331F220F331F820FB5
S1130570931F8E5F9D4FFC018081882F90E0019630
S11305809E838D838D819E8123E030E0B901B7D3B2
S11305909E838D834D815E8129813A818B819C81EB
S11305A0B901F7DD000027960FB6F894DEBF0FBE41
S11305B0CDBFDF91CF910895CF93DF931F921F9208
S11305C0CDB7DEB719828BE091E02FE7FC012083E1
S11305D0898155DF8A838A818F3F11F08A8129C0FE
S11305E084E089838BE091E02FEBFC0120838981F7
S11305F046DF8A838A818F3F11F08A811AC088E09E
S113060089838BE091E02FEDFC012083898137DF22
S11306108A838A818F3F11F08A810BC08CE08983A1
S11306208BE091E02FEEFC012083898128DF8A830F
S11306308A810F900F90DF91CF910895CF93DF932C
S1130640CDB7DEB7A4970FB6F894DEBF0FBECDBF0B
S11306508091420290914302209100023091010264
S1130660B9014DD3892B21F481E08093440202C067
S1130670109244021A82198299C189819A81892B24
S113068051F482E290E022E230E0F90120812F77F8
S1130690FC01208317C082E290E022E230E0F901FD
S11306A02081622F29813A81A9014150510921E019
S11306B030E002C0220F331F4A95E2F7209526232B
S11306C0FC0120831C821B8274C089819A819C0155
S11306D0220F331F220F331F220F331F8B819C8164
S11306E0820F931F8E5F9D4FFC018081882F90E0C5
S11306F081309105D1F08230910509F441C0892BF4
S113070009F052C088E290E028E230E0F90120814B
S1130710422F21E030E00B8002C0220F331F0A94E5
S1130720E2F7242BFC0120833FC0809144028130F6
S1130730A1F488E290E028E230E0F9012081422F20
S113074021E030E00B8002C0220F331F0A94E2F74D
S113075020952423FC01208327C088E290E028E22E
S113076030E0F9012081422F21E030E00B8002C00B
S1130770220F331F0A94E2F7242BFC01208314C0B8
S113078088E290E028E230E0F9012081422F21E064
S113079030E00B8002C0220F331F0A94E2F7209549
S11307A02423FC01208300008B819C8101969C837F
S11307B08B838B819C8108970CF487CF82E290E035
S11307C022E230E0F9012081422F21E030E009806B
S11307D002C0220F331F0A94E2F7242BFC0120836A
S11307E080E090E0AAE7B3E48D839E83AF83B8876B
S11307F02BEA3AEA4AEA5EE36D817E818F8198852D
S11308001BD2DC01CB0189879A87AB87BC8720E0A8
S113081030E040E85EE36D817E818F8198850CD263
S1130820DC01CB018D879E87AF87B88B20E030E059
S113083040E85FE369857A858B859C85ECD08823C5
S11308401CF481E0898BA7C020E03FEF4FE757E419
S11308506D857E858F859889EBD118160CF074C050
S113086020E030E04AE754E46D817E818F819885F1
S1130870D6D0DC01CB018A8B9B8BAC8BBD8B20E06B
S113088030E04AE753E46A897B898C899D89D4D115
S1130890DC01CB018E8B9F8BA88FB98F20E030E0D9
S11308A040E85FE36E897F89888D998DB4D0882371
S11308B02CF481E090E09B8F8A8F3BC020E03FEFD7
S11308C04FE757E46E897F89888D998DB1D11816C9
S11308D03CF520E030E040E251E46A897B898C8970
S11308E09D89AAD1DC01CB01BC01CD0100D1DC0181
S11308F0CB019B8F8A8F0FC089E190E09D8F8C8FF5
S11309008C8D9D8D0197F1F79D8F8C8F8A8D9B8D9A
S113091001979B8F8A8F8A8D9B8D892B69F73BC0AA
S11309206E897F89888D998DE2D0DC01CB019B8F04
S11309308A8F8A8D9B8D9F8F8E8F8E8D9F8D019731
S1130940F1F79F8F8E8F27C020E030E04FE753E40C
S113095069857A858B859C856BD11816A4F46D8581
S11309607E858F859889C3D0DC01CB0199A388A3A8
S113097088A199A19BA38AA38AA19BA10197F1F7BE
S11309809BA38AA30EC069857A858B859C85AFD08D
S1130990DC01CB01898B89898CA38CA18A95F1F721
S11309A08CA389819A8101969A83898389819A810A
S11309B008970CF462CE8091420290914302019612
S11309C090934302809342020000A4960FB6F894D9
S11309D0DEBF0FBECDBFDF91CF910895CF93DF93DC
S11309E01F92CDB7DEB79CDC8CE290E0FC018081E5
S11309F0882F90E080719927892B19F0F0DC01DDB4
S1130A0017DDDADD898389818F3F19F0898175DDEE
S1130A100FDD14DEE9CF97D008F481E008950CD0FF
S1130A20CDC0C5D040F0BCD030F021F45F3F19F008
S1130A30AEC05111F7C0B1C0D2D098F39923C9F315
S1130A405523B1F3951B550BBB27AA2762177307D0
S1130A50840738F09F5F5F4F220F331F441FAA1F84
S1130A60A9F333D00E2E3AF0E0E830D09150504044
S1130A70E695001CCAF729D0FE2F27D0660F771FF2
S1130A80881FBB1F261737074807AB07B0E809F0D4
S1130A90BB0B802DBF01FF2793585F4F2AF09E3F69
S1130AA0510568F074C0BEC05F3FECF3983EDCF3C0
S1130AB0869577956795B795F7959F5FC9F7880FE2
S1130AC0911D9695879597F90895E1E0660F771F34
S1130AD0881FBB1F621773078407BA0720F0621BC5
S1130AE0730B840BBA0BEE1F88F7E09508957FD043
S1130AF088F09F5790F0B92F9927B751A0F0D1F003
S1130B00660F771F881F991F1AF0BA95C9F712C08C
S1130B10B13081F086D0B1E0089583C0672F782F7B
S1130B208827B85F39F0B93FCCF3869577956795F8
S1130B30B395D9F73EF490958095709561957F4F64
S1130B408F4F9F4F0895990F0008550FAA0BE0E8A7
S1130B50FEEF16161706E807F907C0F0121613067B
S1130B60E407F50798F0621B730B840B950B39F4BB
S1130B700A2661F0232B242B252B21F408950A2621
S1130B8009F4A140A6958FEF811D811D089597F961
S1130B909F6780E870E060E008959FEF80EC08951F
S1130BA000240A9416161706180609060895002448
S1130BB00A9412161306140605060895092E0394C2
S1130BC0000C11F4882352F0BB0F40F4BF2B11F436
S1130BD060FF04C06F5F7F4F8F4F9F4F089557FD95
S1130BE09058440F551F59F05F3F71F04795880F97
S1130BF097FB991F61F09F3F79F08795089512162E
S1130C0013061406551FF2CF4695F1DF08C01616D9
S1130C1017061806991FF1CF86957105610508948A
S1130C200895E894BB2766277727CB0197F90895A1
S1130C308ADF08F48FEF08950BD0C0CFB1DF28F01E
S1130C40B6DF18F0952309F0A2CFA7CF1124EACF7D
S1130C50C6DFA0F3959FD1F3950F50E0551F629F17
S1130C60F001729FBB27F00DB11D639FAA27F00D01
S1130C70B11DAA1F649F6627B00DA11D661F829F28
S1130C802227B00DA11D621F739FB00DA11D621F0D
S1130C90839FA00D611D221F749F3327A00D611D2A
S1130CA0231F849F600D211D822F762F6A2F11240C
S1130CB09F5750408AF0E1F088234AF0EE0FFF1F5F
S1130CC0BB1F661F771F881F91505040A9F79E3F96
S1130CD0510570F05CCFA6CF5F3FECF3983EDCF398
S1130CE0869577956795B795F795E7959F5FC1F7D3
S1130CF0FE2B880F911D9695879597F9089597FB7C
S1130D00072E16F4009406D077FD08D00BD007FC0C
S1130D1005D03EF4909581959F4F08957095619507
S1130D207F4F0895AA1BBB1B51E107C0AA1FBB1F1D
S1130D30A617B70710F0A61BB70B881F991F5A9563
S1130D40A9F780959095BC01CD010895F894FFCF43
S1130D50030000000000000000000000010000018A
S1130D600000000002000002000000000100000179
S1130D70000000000000000000000002000000006D
S1130D800200000002020202000000000000000055
S1050D9000005D
S9030000FC
